:02000002D0002C
:1040000000400D000C700D00000006000C000501C2
:084010000401E80500000000B6
:04401800086C0D0023
:10401C0009480A49884208B505D0094A824202D0AB
:10402C00121A02F083FD0748074A0021121A02F007
:10403C0088FD014808BD00BF28E303207C6F0D00FC
:10404C0090E3032090E30320F0E7032070B501F028
:10405C001DFD074C074BE41AA40800251E46A5427B
:10406C0004D056F8253098470135F8E770BD00BFED
:10407C00646F0D00286F0D0000F016B808B500F045
:10408C0021F8BDE8084001F0C3BC00F0B9BB00F05A
:10409C00BFBB00F0BDBB0078B0FA80F040097047A0
:1040AC00012303707047000008B501F0F5FB4FF4D5
:1040BC00165101F0E5FB0248BDE8084000F0BEB81F
:1040CC0094E3032010B52048204C86B000F0A0F9F2
:1040DC00062102A801F0AEFA02A9204601F091FADD
:1040EC0002A801F017FA184800F0A4F9062102A85A
:1040FC0001F0A0FA02A9164801F083FA02A801F017
:10410C0009FA144B22681B788DF8003012493C23B5
:10411C0002A800F04DFD039C7CB16368013B636019
:10412C005BB9236820469B689847A368013BA36052
:10413C001BB923682046DB68984747F2305000F0E3
:10414C0087FB06B010BD00BF94E30320ACE3032053
:10415C00BCE30320A8E303201C6C0D00F8B5114B45
:10416C00114F124C124E134D01221A7000F0ACF983
:10417C0006220221104800F05BF83946204601F077
:10418C0010FA20460D4C3246294601F033FD3946D3
:10419C00204601F006FA324629462046BDE8F84092
:1041AC0001F028BDA8E303205B6D0D00ACE30320F8
:1041BC0090E3032021550D0094E30320BCE303207E
:1041CC0010B503682F2B044604D9074A00210A2096
:1041DC0000F072FA23681F2B83BF03F01F032360C8
:1041EC0002484FF0A04010BDB5440D000003005034
:1041FC0007B502AB43F8040D1846FFF7E1FF019A2F
:10420C0001239340C0F8083503B05DF804FB07B5F3
:10421C0002AB43F8040D1846FFF7D2FFD0F8103567
:10422C00019823FA00F000F0010003B05DF804FBE4
:10423C0002720122817102747047000010B50021D6
:10424C000446807901F084FC074AA37912681B01AB
:10425C00D118D05C4B7803F01F0343EA4010FFF7F2
:10426C00C7FF0023E36010BDCCE303202DE9F74F1B
:10427C00044600F021F9E368834284BF0023E36025
:10428C00237C33B9E368C01AB0F5FA6F01D2012070
:10429C00A8E00025554E257400F00EF9A37932687C
:1042AC00E0601B01D1182571E570A5706570257053
:1042BC00D05C4B7803F01F0343EA4010FFF798FFE4
:1042CC00FA2000F0C5FA0121A07901F041FCA37994
:1042DC0032681B01D118D25C4B7802A803F01F0383
:1042EC0043EA421340F8043DFFF76AFF019B4FF08D
:1042FC00010808FA03F3C0F80C35142000F0A8FAF2
:10430C0000F058FEA37932681B01D118D05C4B78B1
:10431C0003F01F0343EA4010FFF76AFF282000F068
:10432C00C3F82946A07901F013FC2F464FF0000B7F
:10433C00A37932681B01D11812F803A04B7803F053
:10434C001F0343EA4A1A5046FFF761FF5046FFF736
:10435C005EFF80455FFA8BF908D101200BF1010B50
:10436C0000F0A2F8BBF1FF0FE2D1D946A379326875
:10437C001B01D11812F803804B7803F01F0343EA9A
:10438C0048184046FFF743FF4046FFF740FFB9F19E
:10439C00FF0F5FFA80F814D0032D0ED9EB070CD465
:1043AC00FA080137A35C5B00DBB2A354217A4945C0
:1043BC003CBF43F00103A354FFB20135EDB2552DC0
:1043CC00B4D100F0F9FD272F0BD92278637821792D
:1043DC001344A2781344E2781344DBB299423FF4BD
:1043EC0056AF002003B0BDE8F08F00BFCCE3032034
:1043FC0010B50446FFF73AFF28B1A37800EE103A47
:10440C00B8EE400A10BD9FED010A10BD0000C07F40
:10441C00FFF7EEBF10B50446FFF728FF28B123784D
:10442C0000EE103AB8EE400A10BD9FED010A10BD27
:10443C000000C07FFFF7EEBF08B500F045F8014B58
:10444C00186008BDCCE3032008B5024B1B689B68C1
:10445C00019308BD4802030008B5024B1B681B6999
:10446C00019308BD4802030008B5024B1B685B6949
:10447C00019308BD4802030008B5024B1B685B6C36
:10448C00019308BD4802030008B5024B1B689B6CE6
:10449C00019308BD4802030008B5024B1B685B681A
:1044AC00019308BD1802030008B5024B1B68DB68BA
:1044BC00019308BD1802030008B5024B1B685B6929
:1044CC00019308BD1802030008B5024B1B681B685A
:1044DC00019308BD2C02030008B5024B1B689B68B6
:1044EC00019308BD2C02030008B5024B1B681B6A24
:1044FC00019308BD2C02030008B5024B1B685B6AD4
:10450C00019308BD2C02030008B5024B1B681B6A03
:10451C00019308BD2802030008B5024B1B685B6AB7
:10452C00019308BD2802030008B5024B1B689B6A67
:10453C00019308BD2802030008B5024B1B68DB6A17
:10454C00019308BD2802030008B5024B1B681B6BC6
:10455C00019308BD2802030008B5024B1B685B6B76
:10456C00019308BD2802030008B5024B1B681B6CA5
:10457C00019308BD2802030008B5024B1B685B6958
:10458C00019308BD6402030008B5024B1B689B68CD
:10459C00019308BD6802030008B5024B1B68DB6879
:1045AC00019308BD6802030008B5024B1B68DB6968
:1045BC00019308BD3002030008B5024B1B681B6A4F
:1045CC00019308BD3002030008B5024B1B681B6841
:1045DC00019308BD3C02030008B5024B1B68DB6865
:1045EC00019308BD3C02030008B5024B1B681B6914
:1045FC00019308BD3C02030008B5024B1B685B69C4
:10460C00019308BD3C02030008B5024B1B689B6973
:10461C00019308BD3C02030008B5024B1B68DB6923
:10462C00019308BD3C02030008B5024B1B681B6AD2
:10463C00019308BD3C02030008B5024B1B689B6A42
:10464C00019308BD3C02030008B5024B1B681B68B4
:10465C00019308BD4C02030008B5024B1B685B6854
:10466C00019308BD4C02030008B5024B1B681B6983
:10467C00019308BD4C02030008B5024B1B685B6933
:10468C00019308BD4C02030008B5024B1B689B69E3
:10469C00019308BD4C02030008B5024B1B68DB6993
:1046AC00019308BD4C02030008B5024B1B681B6A42
:1046BC00019308BD4C02030008B5024B1B685B6BF1
:1046CC00019308BD6002030008B5024B1B685B68D0
:1046DC00019308BD2002030008B5024B1B685B69FF
:1046EC00019308BD2002030008B5024B1B68DB6C6C
:1046FC00019308BD2002030008B5024B1B685B6DDB
:10470C00019308BD2002030008B5034B1B68D3F8C6
:10471C008830019308BD00002002030008B5034B4C
:10472C001B68D3F89430019308BD000020020300ED
:10473C0008B5024B1B685B69019308BD440203007A
:10474C0008B5024B1B681B6A019308BD44020300A9
:10475C0008B5024B1B68DB6B019308BD44020300D8
:10476C0008B5024B1B685B68019308BD400203004F
:10477C0008B5024B1B689B68019308BD40020300FF
:10478C0008B5024B1B68DB68019308BD40020300AF
:10479C0008B5024B1B681B69019308BD400203005E
:1047AC0008B5024B1B685B69019308BD400203000E
:1047BC0008B5024B1B689B69019308BD40020300BE
:1047CC0008B5024B1B68DB69019308BD400203006E
:1047DC0008B5024B1B681B6A019308BD400203001D
:1047EC0008B5024B1B681B6B019308BD400203000C
:1047FC0008B5024B1B685B6B019308BD40020300BC
:10480C0008B5024B1B681B68019308BD1C02030012
:10481C0008B5024B1B685B68019308BD1C020300C2
:10482C0008B5024B1B689B68019308BD1C02030072
:10483C0008B5024B1B68DB6A019308BD1C02030020
:10484C0008B5024B1B681B6B019308BD1C020300CF
:10485C000021FFF741BF10B5836804460BB901F086
:10486C00EAF9C3689847A3681BB103222146204686
:10487C00984720461021BDE8104001F0C0B910B592
:10488C000446006808B1FFF7FFFD204610BD10B5C7
:10489C00036804469B689847A368013BA3602BB947
:1048AC0023682046DB68BDE81040184710BD0B6834
:1048BC00036013B15A6801325A60704710B5044650
:1048CC00006828B14368013B43600BB9FFF7DFFF79
:1048DC00204610BD10B5064C002320462360FFF780
:1048EC00CBFD2046034A0449BDE8104001F082B9D3
:1048FC00D0E3032090E303208B480D007047002089
:10490C00704710B51021044601F079F9204610BD0E
:10491C0008B508B1FFF7F5FF08BD10B5836804466C
:10492C0013B1032201469847204610BD00220260B5
:10493C0010B54FF69C728280B1F9044084808A8055
:10494C0002680C6804600A6010BD10B5044600686B
:10495C00FFF75EFF204610BD38B5C468F4B123786C
:10496C00022B03D104F10C00FFF7EFFF656835B1A2
:10497C002846FFF7D2FF1021284601F040F9A56820
:10498C0035B12846FFF7C9FF1021284601F037F949
:10499C0020461421BDE8384001F031B938BD13B5BB
:1049AC00044691E8050000234B600B6020606260B8
:1049BC0001A801930093FFF781FF204602B010BDC0
:1049CC00F7B50C4602AD54F8043B45F8083D0646D5
:1049DC000F4601A82146FFF76AFF29463046FFF72C
:1049EC00DEFF01A8FFF76AFF2046FFF767FF384696
:1049FC00082101F004F9304603B0F0BD13B50B46A5
:104A0C00044603C88DE8030093E8030084E8030020
:104A1C009DE8030083E8030002B010BD38B5002305
:104A2C000446036010200D46FFF72FFB28B101232D
:104A3C0043608360024B0360C5602060204638BD34
:104A4C00306C0D00826810B50AB901F0F4F8C36837
:104A5C00BDE81040184708B5006800F11001FFF7D9
:104A6C00F1FF08BD826810B50AB901F0E4F8C3681B
:104A7C00BDE81040184708B5006800F11001FFF7B9
:104A8C00F1FF08BD38B5002383608B6804460D46E2
:104A9C002BB102229847EB68E360AB68A360204619
:104AAC0038BD0000F0B589B004686846FFF73EFFDA
:104ABC0000238DF808304FF00202D4E84F3F002B52
:104ACC0003D1C4E8412F0029F7D102D08DF808306A
:104ADC0063E014F10C0503D069462846FFF726FF66
:104AEC00BFF35F8F01236370002004F10803BFF351
:104AFC005F8F53E8006F43E80002002AF9D1BFF33F
:104B0C005F8F002E49D0FFF7EFFD20B129463046CC
:104B1C00FFF798FF3AE0314602A8FFF7B3FFE068D1
:104B2C00B4F9105008B102F045F806901020ADF819
:104B3C001C50FFF7AAFA0546E8B100278760182039
:104B4C00FFF7A3FA044688B10146876002A8FFF775
:104B5C0055FF049BA268A360059B049206A9E2681A
:104B6C00E36004F110000592FFF7E0FE0D4BEB60E3
:104B7C000D4B2C60AB6006A8FFF7E7FE02A8FFF711
:104B8C00CCFE002229460948FFF7B6FD3046FFF758
:104B9C00C4FE1021304601F032F86846FFF7D5FE0E
:104BAC0009B0F0BD634A0D00D94C0D0063480D00EF
:104BBC002DE9F04F8BB006460F46904699469DF86E
:104BCC0050A0FFF7B5FD07AD834630BB4FF62E73F3
:104BDC00059005A92846ADF81830FFF7A7FE14205C
:104BEC00FFF753FA044658B10223037001234370B4
:104BFC00C0F804B0C0F808B029460C30FFF796FE98
:104C0C003046214640F8044BFFF708FF2846FFF7D3
:104C1C009CFE05A8FFF799FE52E000240C231420FB
:104C2C006C60AC600793FFF730FA014618B1047062
:104C3C0044704460846004A80391FFF7EFFE224B9C
:104C4C0008930820FFF721FA044628B1039B40F88B
:104C5C00043B04A9FFF72BFE00955FFA8AF34A4642
:104C6C00414638460994FFF76BFD20B9039B5B78EE
:104C7C0003F0FF0283B1039B059304A906A8FFF779
:104C8C0016FE05A93046FFF78AFE06A8FFF716FEAA
:104C9C0004A8FFF713FE13E04FF69C7305A903A8B5
:104CAC000592ADF81830FFF7FDFE05A8FFF74DFE95
:104CBC0005A80999FFF784FE06A8FFF7FFFDDAE7C0
:104CCC0030460BB0BDE8F08F494E0D00022AF8B506
:104CDC00044606D0032A17D0012A22D10B680360A0
:104CEC001FE018200E68FFF7D0F9054650B1314689
:104CFC00FFF7C8FE3069B6F9147008B101F05AFF1D
:104D0C002861AF8225600CE0046854B104F11000F6
:104D1C00FFF71BFE2046FFF700FE1821204600F08F
:104D2C006EFF0020F8BD38B5002383608B68044605
:104D3C000D462BB102229847EB68E360AB68A36089
:104D4C00204638BD022A70B5044606D0032A11D07D
:104D5C00012A18D10B68036015E014200E68FFF7C8
:104D6C0094F9054620B13146FFF7DDFF337C2B74F7
:104D7C00256008E0046834B12046FFF7CEFD14210D
:104D8C00204600F03CFF002070BD0000F0B5002371
:104D9C0087B00C46BFF35F8F50E8006F40E80032DD
:104DAC00002AF9D1BFF35F8F002E3FD01846FFF7D2
:104DBC009BFC074620B121463046FFF753FE2EE000
:104DCC00314601A8FFF7AFFF23788DF8143010207F
:104DDC00FFF75BF90546D0B187601420FFF755F952
:104DEC00044678B18760014601A8FFF707FE039BD4
:104DFC00A268A360049B0392E268E3609DF8143000
:104E0C00049223740A4BEB600A4B2C60AB6001A834
:104E1C00FFF783FD002229460748FFF76DFC30465B
:104E2C00FFF77BFD1021304600F0E9FE07B0F0BD26
:104E3C00834A0D00514D0D0063480D0030B585B00F
:104E4C0004460D4668461146FFF7BAFD7CB124B204
:104E5C0028460DB101F0AEFE029002A96846ADF8ED
:104E6C000C40FFF71FFE02A8FFF76FFD1DE0009836
:104E7C008DF808404FF00102D0E84F3FA34203D118
:104E8C00C0E8412F0029F7D102D08DF808300CE092
:104E9C0010F10C014FF0010318BF0373BFF35F8FC8
:104EAC00043000F8033CFFF771FF01A8FFF706FD83
:104EBC0005B030BD002211464068FFF789BC0022C6
:104ECC0011464068FFF794BC00224068FFF788BC8D
:104EDC00002281F001014068FFF772BC00231A46E2
:104EEC0019464068FFF764BC00231A46194640680F
:104EFC00FFF756BC002211464068FFF749BC002260
:104F0C0011464068FFF734BC002202214068FFF7CD
:104F1C0037BC00231A464068FFF722BC024B032221
:104F2C005A60024A1A607047D4E303204C6C0D009F
:104F3C007047F8B5064615460C468F18BC4206D08D
:104F4C00336814F8011B9B6830469847F6E72846EF
:104F5C00F8BD0022007CFFF7D7BA0021007CFFF7D8
:104F6C00DBBA0021007CFFF7DFBA0021007CFFF7E1
:104F7C00E3BA0021007CFFF7E7BA10B51421044610
:104F8C0000F03DFE204610BD10B5044600236360C2
:104F9C004FF47A73A360044B2174084623601146C6
:104FAC00FFF7E2FA204610BD806C0D000021007C5A
:104FBC00FFF7D2BAFFF7A0BAFFF796BA704710B551
:104FCC001821044600F01BFE204610BDF0B5037DF1
:104FDC00062B8DB00E4600F104074FF0000402D0F2
:104FEC0000F1080518E00CAD394605F8304D2F23BB
:104FFC002A460A20FFF7C0FA284601F0F6FD33686E
:10500C000246DB682946304698470FE024B12E2132
:10501C00304600F0D5F9044415F8011D0A2230463B
:10502C0000F0D1F9BD420444F0D120460DB0F0BDE2
:10503C0010B5054B0446112240F8043B002101F049
:10504C0080FD204610BD00BFA86C0D000346074A2A
:10505C0010B543F8042B01F1100251F8044B43F83E
:10506C00044B9142F9D10A781A7010BDA86C0D004E
:10507C0010B59DF8084044EA032343EA024242EA91
:10508C00016104234160037510BD37B50D788B7831
:10509C004A78C97800912946FFF7EAFF03B030BD82
:1050AC00014B024A1A607047DCE30320276D0D00A8
:1050BC00002211464068FFF78BBB00221146406866
:1050CC00FFF796BB00224068FFF78ABB002281F0F5
:1050DC0001014068FFF774BB00231A4601214068A8
:1050EC00FFF766BB00231A4619464068FFF758BB0A
:1050FC00002211464068FFF74BBB00221146406866
:10510C00FFF736BB002202214068FFF739BB0023B2
:10511C001A464068FFF724BB38B5054688B10468C9
:10512C004CB1A3681BB1032221462046984710219D
:10513C00204600F064FD28461421BDE8384000F0FC
:10514C005EBD38BD10B103685B681847704710B579
:10515C0003680446BBB15868FFF776F978B9236841
:10516C005A7C12B95868FFF777F923685868FFF72B
:10517C007BF920680023236028B1FFF7CDFF20685E
:10518C0008B1FFF7C9FF204610BD38B50446D0F86A
:10519C00C40108B1FEF77DFFD4F8C00108B1FFF7D8
:1051AC0073F9D4F8BC5135B12846FFF7D0FF042170
:1051BC00284600F024FD206808B1FFF7C3FF204605
:1051CC0038BD000010B5044B044640F8083BFFF70F
:1051DC00DCFF204610BD00BFA06D0D0038B50E4C95
:1051EC000E4B23600025022304F5E4706360A56078
:1051FC00C4F8C451C4F8C851FFF73EF9084BC4F8C1
:10520C00CC5184F8D05123602046064A0649BDE8AB
:10521C00384000F0EFBC00BFE0E30320D46D0D007C
:10522C00A06D0D0090E30320D1510D0000231A4610
:10523C004068FFF795BA002202214068FFF7A0BA38
:10524C00002211464068FFF793BA002211464068CD
:10525C00FFF79EBA00231A4619464068FFF7A0BA1A
:10526C0000231A4619464068FFF7A2BA002281F0C3
:10527C0001014068FFF7A4BA00224068FFF7B0BAFA
:10528C00002211464068FFF7B3BA0022114640686D
:10529C00FFF79EBA2DE9F043002495B016460D4653
:1052AC000746FFF7C5FE214620220CA8009401F00A
:1052BC0048FC40230C9321466B460CAA3046FFF762
:1052CC006BF90446002844D1024601216868FFF7B7
:1052DC005FFA0221804622466868FFF759FA009E61
:1052EC0081462146002E34D0002932D17368022B1E
:1052FC0002D00A2B09D02AE0B8F1000F27D071692F
:10530C0038460431FFF7C1FE20E0B9F1000F1ED082
:10531C007469112201A801F014FC06238DF81430D5
:10532C0001AD04F108031834186859682A4603C201
:10533C000833A3421546F7D101A906A807ADFFF71C
:10534C0085FE0FCD3C1D0FC42B6823700121F6691F
:10535C00C8E70098FFF718F9384615B0BDE8F08398
:10536C00024B034A1A6000225A607047B4E50320CE
:10537C00D46D0D00F8B506460D468F180024BD42BD
:10538C000CD0336815F8011B9B68304698470028F1
:10539C0001DB0444F3E7002C08BF04462046F8BDAB
:1053AC0070B505460C46084649B101F01EFC2B6849
:1053BC00024621462846DB68BDE87040184770BDA0
:1053CC0003689B68184730B58BB00B4600218DF8ED
:1053DC002410012A98BF0A220DF12304B3FBF2F525
:1053EC0005FB123303F0FF03092B94BF3033373323
:1053FC00DBB2214604F801392B46002DEED1FFF724
:10540C00CFFF0BB030BD10B50446FFF786FA20462F
:10541C0010BD00000348044A04490023836000F0D7
:10542C00E9BB00BFBCE5032090E3032013540D003F
:10543C0010B5044601700846FFF7B6F80023636008
:10544C00204610BD0078FFF7B7B800002DE9F14FEA
:10545C0059EC108B07460E460022002310EE100A62
:10546C00494601F05DF928B109F1004399462D2315
:10547C0033700136002301240A22D9B28F4202D99B
:10548C0054430133F9E7204600F072FE42464B4686
:10549C0000F0D4FE82468B4601F0A2F98046894684
:1054AC0000F096FE02460B465046594600F012FD9F
:1054BC000022174B01F048F918B118F1010849F115
:1054CC000009E51722462B464046494601F070F983
:1054DC0001230A22314600F054FAAFB1304601F0F4
:1054EC0084FB2E2333540130064422462B4640467F
:1054FC00494601F05DF93B46104631460A2201B09F
:10550C00BDE8F04F00F03DBA01B0BDE8F08F00BF30
:10551C000000E03F10B504460068FFF779F920461B
:10552C0010BD10B50446006808B1FFF771F90023EF
:10553C002360A360636010BD38B504460D46006857
:10554C000131FFF76DF910B184E82100012038BD5D
:10555C0010B50368044613B143688B4207D220464A
:10556C00FFF7EAFF20B1A3680BB922681370012082
:10557C0010BD70B50E46114604461546FFF7E8FF00
:10558C0018B92046FFF7CDFF09E02A463146A56041
:10559C00206801F0CBFA2268A3680021D154204680
:1055AC0070BD38B500230446036043608360037309
:1055BC000D4639B1084601F018FB29460246204633
:1055CC00FFF7D7FF204638BD38B5054600680C46B6
:1055DC0060B16A688B689A4206D3096801F0E2FAF6
:1055EC00A368AB6000230AE0FFF712F923682B6075
:1055FC0063686B60A368AB60002323606360A36087
:10560C0038BD884210B5044601D0FFF7DDFF2046B7
:10561C0010BD38B505460C4641B1084601F0E5FA17
:10562C00214602462846FFF7A4FF01E0FFF779FF69
:10563C00284638BD30B500238BB0036043608360CF
:10564C000373044610EE100ACDB200F0A3FD41EC3A
:10565C00100B01A92846FFF7F9FE01A92046FFF718
:10566C00D8FF20460BB030BD10B50446006818B109
:10567C00FFF7CEF80023236010BD10B50446FFF7EA
:10568C00F3FF204610BD000010B5094C00204FF66A
:10569C00FF732060A080A07120816381FFF714F854
:1056AC002046044A0449BDE8104000F0A3BA00BFEC
:1056BC00CCE5032090E3032087560D00024B1A68BB
:1056CC00024B1A60704700BF28E30320D8E5032083
:1056DC0070474174704708B5007CFEF7ADFF20EAB7
:1056EC00E07008BD08B5007CFEF77EFF20EAE07094
:1056FC0008BD08B5007CFEF787FF30EA200028BF04
:10570C004FF0FF3008BD08B5007CFEF775FF30EA9E
:10571C00200028BF4FF0FF3008BD007CFEF77CBF97
:10572C0010B51421044600F06AFA204610BD70B57D
:10573C00457C04460E4625B9007CFEF77DFF00280B
:10574C0005DD3146207CBDE87040FEF745BF28469C
:10575C0070BD000010B50446084611460022626078
:10576C004FF47A72A260054A22600122207462749E
:10577C001A46FEF729FF204610BD00BF346E0D00FF
:10578C00007CFEF751BF000038B50C4D296811F0B4
:10579C00010411D12846FEF77EFC68B1084A094B7A
:1057AC0009482146FFF7D6FF2846FEF779FC074A41
:1057BC000749054800F01EFA034838BD74E603207B
:1057CC0078E60320F0E50320DCE5032090E30320DA
:1057DC00DD560D0041747047704708B50021007C00
:1057EC00FEF752FF30EA200028BF4FF0FF3008BD13
:1057FC0008B50121007CFEF747FF30EA200028BFE6
:10580C004FF0FF3008BD08B5007CFEF735FF20EAED
:10581C00E07008BD08B5007CFEF726FF20EAE070BA
:10582C0008BD007CFEF740BF10B51421044600F003
:10583C00E6F9204610BD38B50446007C0D46FEF74F
:10584C001BFF002801DC607C28B12946207CFEF778
:10585C0023FF20EAE07038BD10B5044600236360D6
:10586C004FF47A73A360054B23600123084621741F
:10587C0063741146FEF7E8FE204610BD646E0D0001
:10588C000022007CFEF7E8BE10B51422044600216D
:10589C0001F057F9204610BD30B50E4D87B001A868
:1058AC00FFF7F2FF296811F0010410D12846FEF72A
:1058BC00F2FB60B101AA21460748FFF7CDFF28464D
:1058CC00FEF7EEFB054A0649034800F093F902483F
:1058DC0007B030BDFCE6032000E7032090E3032073
:1058EC00E5570D00002211464068FEF751BF00221B
:1058FC0011464068FEF76CBF002211464068FEF767
:10590C0077BF00224068FEF76BBF002281F00101D7
:10591C004068FEF755BF00231A4619464068FEF74B
:10592C0047BF00231A4619464068FEF739BF0022CC
:10593C0011464068FEF71CBF002202214068FEF7AA
:10594C001FBF00231A464068FEF70ABF024B042211
:10595C005A60024A1A60704714E70320946E0D00D7
:10596C0010B5044601F041F901382318204698423D
:10597C0006D20278197800F8011B03F80129F6E722
:10598C0010BD70B50C46911E222920D825462946FB
:10599C0010B9234430220EE0B0FBF2F602FB1600E5
:1059AC00C1B205F8011B092894BF3031573105F8F5
:1059BC00011C3046EBE7994202D201F8012BFAE7C1
:1059CC00002320460B70FFF7CBFF204670BD002054
:1059DC0070BD000008B50C4B33B1FFF75DFF0368D9
:1059EC001B699847002809DC084B63B1FFF7CCFE14
:1059FC0003681B699847002803DC08BDAFF30080DF
:105A0C00F2E7AFF3008008BD0000000000000000CA
:105A1C0008B5FFF7DFFFFEF74FFD014B186008BD1F
:105A2C0030E703200248034A0349121A01F07EB8FA
:105A3C0000F4032004F40320786F0D0007B5002355
:105A4C0000931A466FF07701FEF768FE03B05DF81D
:105A5C0004FB000007B543880A2B08D0502B09D152
:105A6C00094B1B683BB103B05DF804EB1847FFF71B
:105A7C00E5FF06E0002300931A466FF07701FEF76E
:105A8C004DFE03B05DF804FB1CE7032038B5104C49
:105A9C00104D2368AB42104B0CBF012200221A7030
:105AAC0002D0FFF7BFFF2560FEF7F6FC044601F0BD
:105ABC0051F80A4B13B12046AFF300800021074880
:105ACC00FEF746FE00210648BDE83840FEF71CBE36
:105ADC0000F403201E1C279A20E70320000000007E
:105AEC00615A0D0070B5184E316811F0010504466D
:105AFC000AD13046FEF7CFFA30B129461348FFF7EA
:105B0C0097FC3046FEF7CCFA1048FFF79BFC28B107
:105B1C00A4F10B03022B01D8002070BD00F044F857
:105B2C00FFF744FA08B1012CF6D9FFF72DFEFFF769
:105B3C0027FE18B1A4F10903012BEDD9232C8CBF3E
:105B4C000020012070BD00BF24E7032028E70320BC
:105B5C00232838B504460D460AD8FF2908D0FFF78C
:105B6C00C1FF28B129462046BDE83840FEF7B4BC39
:105B7C0038BD000070B5044614252A46094E002194
:105B8C0000F0DFFF258020253146A56025612846E1
:105B9C0000F04FF831466060284600F04AF8E060AB
:105BAC00204670BDC06E0D0030B50E4D296811F049
:105BBC00010487B013D12846FEF76DFA78B101A81D
:105BCC00FFF7D8FF01AA21460748FFF7DDF9284661
:105BDC00FEF766FA054A0649034800F00BF802483E
:105BEC0007B030BD34E7032038E7032090E30320EF
:105BFC003D4F0D000B460146184600F089BFFEF7DD
:105C0C0046BA0000024B1868BFF35F8F704700BFA5
:105C1C004CE7032010B5002814BF0446012420468D
:105C2C00FEF7EEFD20B9FFF7EDFF08B18047F6E770
:105C3C0010BDFFF7EFBF08B5FEF7FAFD244B1A684D
:105C4C00D0075CBF01221A60224B1A68D1075CBFD7
:105C5C0001221A60204B1A68D2075CBF01221A601D
:105C6C001E4B1A68D0075CBF01221A601C4B1A68C5
:105C7C00D1075CBF01221A601A4B1A68D2075CBFAD
:105C8C0001221A60184B1A68D0075CBF01221A60F7
:105C9C00164B1A68D1075CBF01221A60144B1A68A4
:105CAC00D2075CBF01221A60124B1A68D0075CBF86
:105CBC0001221A60104B1A68D1075CBF01221A60CE
:105CCC000E4B1A68D2075CBF01221A60704700BFE6
:105CDC007CE7032078E7032074E7032070E70320B8
:105CEC006CE7032068E7032064E7032060E70320E8
:105CFC005CE7032058E7032054E7032050E7032018
:105D0C00184B1A68D1075CBF01221A60164B1A682F
:105D1C00D2075CBF01221A60144B1A68D0075CBF13
:105D2C0001221A60124B1A68D1075CBF01221A605B
:105D3C00104B1A68D2075CBF01221A600E4B1A680E
:105D4C00D0075CBF01221A600C4B1A68D1075CBFEC
:105D5C0001221A600A4B1A68D2075CBF01221A6032
:105D6C00704700BF9CE7032098E7032094E70320CB
:105D7C0090E703208CE7032088E7032084E70320C7
:105D8C0080E70320184B1A68D1075CBF01221A6008
:105D9C00164B1A68D2075CBF01221A60144B1A68A2
:105DAC00D0075CBF01221A60124B1A68D1075CBF86
:105DBC0001221A60104B1A68D2075CBF01221A60CC
:105DCC000E4B1A68D0075CBF01221A600C4B1A6884
:105DDC00D1075CBF01221A600A4B1A68D2075CBF5C
:105DEC0001221A60704700BFBCE70320B8E703200C
:105DFC00B4E70320B0E70320ACE70320A8E70320B7
:105E0C00A4E70320A0E70320244B1A68D0075CBF4B
:105E1C0001221A60224B1A68D1075CBF01221A605A
:105E2C00204B1A68D2075CBF01221A601E4B1A68FD
:105E3C00D0075CBF01221A601C4B1A68D1075CBFEB
:105E4C0001221A601A4B1A68D2075CBF01221A6031
:105E5C00184B1A68D0075CBF01221A60164B1A68DF
:105E6C00D1075CBF01221A60144B1A68D2075CBFC1
:105E7C0001221A60124B1A68D0075CBF01221A600B
:105E8C00104B1A68D1075CBF01221A600E4B1A68BE
:105E9C00D2075CBF01221A60704700BFECE70320F9
:105EAC00E8E70320E4E70320E0E70320DCE7032036
:105EBC00D8E70320D4E70320D0E70320CCE7032066
:105ECC00C8E70320C4E70320C0E7032081F00041AA
:105EDC0002E000BF83F0004330B54FEA41044FEAC3
:105EEC00430594EA050F08BF90EA020F1FBF54EA5E
:105EFC00000C55EA020C7FEA645C7FEA655C00F0FA
:105F0C00E2804FEA5454D4EB5555B8BF6D420CDDCA
:105F1C002C4480EA020281EA030382EA000083EA4D
:105F2C00010180EA020281EA0303362D88BF30BDED
:105F3C0011F0004F4FEA01314FF4801C4CEA113143
:105F4C0002D0404261EB410113F0004F4FEA0333A2
:105F5C004CEA133302D0524263EB430394EA050F2D
:105F6C0000F0A780A4F10104D5F1200E0DDB02FA9C
:105F7C000EFC22FA05F2801841F1000103FA0EF230
:105F8C00801843FA05F359410EE0A5F120050EF1F6
:105F9C00200E012A03FA0EFC28BF4CF0020C43FA27
:105FAC0005F3C01851EBE37101F0004507D54FF034
:105FBC00000EDCF1000C7EEB00006EEB0101B1F584
:105FCC00801F1BD3B1F5001F0CD349085FEA3000CA
:105FDC004FEA3C0C04F101044FEA445212F5800FD5
:105FEC0080F09A80BCF1004F08BF5FEA500C50F172
:105FFC00000041EB045141EA050130BD5FEA4C0C55
:10600C00404141EB010111F4801FA4F10104E9D1DD
:10601C0091F0000F04BF01460020B1FA81F308BFD4
:10602C002033A3F10B03B3F120020CDA0C3208DDA0
:10603C0002F1140CC2F10C0201FA0CF021FA02F17B
:10604C000CE002F11402D8BFC2F1200C01FA02F1EB
:10605C0020FA0CFCDCBF41EA0C019040E41AA2BF10
:10606C0001EB0451294330BD6FEA04041F3C1CDAD8
:10607C000C340EDC04F11404C4F1200220FA04F0F8
:10608C0001FA02F340EA030021FA04F345EA0301A2
:10609C0030BDC4F10C04C4F1200220FA02F001FA64
:1060AC0004F340EA0300294630BD21FA04F02946E6
:1060BC0030BD94F0000F83F4801306BF81F480117F
:1060CC000134013D4EE77FEA645C18BF7FEA655CF2
:1060DC0029D094EA050F08BF90EA020F05D054EAC4
:1060EC00000C04BF1946104630BD91EA030F1EBFC9
:1060FC000021002030BD5FEA545C05D140004941CD
:10610C0028BF41F0004130BD14F580043CBF01F5BF
:10611C00801130BD01F0004545F0FE4141F47001A5
:10612C004FF0000030BD7FEA645C1ABF1946104680
:10613C007FEA655C1CBF0B46024650EA013406BF81
:10614C0052EA033591EA030F41F4002130BD00BF40
:10615C0090F0000F04BF0021704730B54FF48064FD
:10616C0004F132044FF000054FF0000150E700BF7E
:10617C0090F0000F04BF0021704730B54FF48064DD
:10618C0004F1320410F0004548BF40424FF00001CA
:10619C003EE700BF42004FEAE2014FEA31014FEA0D
:1061AC0002701FBF12F07F4393F07F4F81F060515C
:1061BC00704792F0000F14BF93F07F4F704730B5CB
:1061CC004FF4607401F0004521F0004120E700BF5E
:1061DC0050EA010208BF704730B54FF000050AE0E5
:1061EC0050EA010208BF704730B511F0004502D5E6
:1061FC00404261EB41014FF4806404F132045FEAE8
:10620C00915C3FF4DCAE4FF003025FEADC0C18BF8C
:10621C0003325FEADC0C18BF033202EBDC02C2F182
:10622C00200300FA03FC20FA02F001FA03FE40EA14
:10623C000E0021FA02F11444C1E600BF70B54FF014
:10624C00FF0C4CF4E06C1CEA11541DBF1CEA1355F6
:10625C0094EA0C0F95EA0C0F00F0DEF82C4481EA5E
:10626C00030621EA4C5123EA4C5350EA013518BF7E
:10627C0052EA033541F4801143F4801338D0A0FB6B
:10628C0002CE4FF00005E1FB02E506F00042E0FB18
:10629C0003E54FF00006E1FB03569CF0000F18BF1E
:1062AC004EF0010EA4F1FF04B6F5007F64F54074C6
:1062BC0004D25FEA4E0E6D4146EB060642EAC62159
:1062CC0041EA55514FEAC52040EA5E504FEACE2EC6
:1062DC00B4F1FD0C88BFBCF5E06F1ED8BEF1004FC9
:1062EC0008BF5FEA500E50F1000041EB045170BD45
:1062FC0006F0004646EA010140EA020081EA030189
:10630C00B4EB5C04C2BFD4EB0C0541EA045170BD84
:10631C0041F480114FF0000E013C00F3AB8014F1FE
:10632C00360FDEBF002001F0004170BDC4F1000447
:10633C00203C35DA0C341BDC04F11404C4F12005C8
:10634C0000FA05F320FA04F001FA05F240EA020023
:10635C0001F0004221F0004110EBD37021FA04F659
:10636C0042EB06015EEA430E08BF20EAD37070BD13
:10637C00C4F10C04C4F1200500FA04F320FA05F072
:10638C0001FA04F240EA020001F0004110EBD37074
:10639C0041F100015EEA430E08BF20EAD37070BDE4
:1063AC00C4F1200500FA05F24EEA020E20FA04F3BD
:1063BC0001FA05F243EA020321FA04F001F000416C
:1063CC0021FA04F220EA020000EBD3705EEA430EDD
:1063DC0008BF20EAD37070BD94F0000F0FD101F00C
:1063EC000046400041EB010111F4801F08BF013C45
:1063FC00F7D041EA060195F0000F18BF704703F083
:10640C000046520043EB030313F4801F08BF013D09
:10641C00F7D043EA0603704794EA0C0F0CEA1355C5
:10642C0018BF95EA0C0F0CD050EA410618BF52EA7F
:10643C004306D1D181EA030101F000414FF0000085
:10644C0070BD50EA410606BF1046194652EA430693
:10645C0019D094EA0C0F02D150EA013613D195EA07
:10646C000C0F05D152EA03361CBF104619460AD14F
:10647C0081EA030101F0004141F0FE4141F4700159
:10648C004FF0000070BD41F0FE4141F4780170BD49
:10649C0070B54FF0FF0C4CF4E06C1CEA11541DBFAE
:1064AC001CEA135594EA0C0F95EA0C0F00F0A7F8B0
:1064BC00A4EB050481EA030E52EA03354FEA0131DD
:1064CC0000F088804FEA03334FF0805545EA1313F0
:1064DC0043EA12634FEA022245EA111545EA1065B8
:1064EC004FEA00260EF000419D4208BF964244F14F
:1064FC00FD0404F5407402D25B084FEA3202B61A6E
:10650C0065EB03055B084FEA32024FF480104FF441
:10651C00002CB6EB020E75EB030E22BFB61A7546B5
:10652C0040EA0C005B084FEA3202B6EB020E75EB48
:10653C00030E22BFB61A754640EA5C005B084FEAB0
:10654C003202B6EB020E75EB030E22BFB61A75467D
:10655C0040EA9C005B084FEA3202B6EB020E75EB88
:10656C00030E22BFB61A754640EADC0055EA060E49
:10657C0018D04FEA051545EA16754FEA06164FEA8C
:10658C00C30343EA52734FEAC2025FEA1C1CC0D138
:10659C0011F4801F0BD141EA00014FF000004FF0C5
:1065AC00004CB6E711F4801F04BF01430020B4F186
:1065BC00FD0C88BFBCF5E06F3FF6AFAEB5EB030C3E
:1065CC0004BFB6EB020C5FEA500C50F1000041EB3B
:1065DC00045170BD0EF0004E4EEA113114EB5C0408
:1065EC00C2BFD4EB0C0541EA045170BD41F48011DB
:1065FC004FF0000E013C90E645EA060E8DE60CEAE3
:10660C00135594EA0C0F08BF95EA0C0F3FF43BAFFF
:10661C0094EA0C0F0AD150EA01347FF434AF95EAB6
:10662C000C0F7FF425AF104619462CE795EA0C0F9A
:10663C0006D152EA03353FF4FDAE1046194622E767
:10664C0050EA410618BF52EA43067FF4C5AE50EA41
:10665C0041047FF40DAF52EA43057FF4EBAE12E731
:10666C004FF0FF3C06E000BF4FF0010C02E000BF12
:10667C004FF0010C4DF804CD4FEA410C7FEA6C5CF5
:10668C004FEA430C18BF7FEA6C5C1BD001B050EA98
:10669C00410C0CBF52EA430C91EA030F02BF90EA83
:1066AC00020F0020704710F1000F91EA030F58BF42
:1066BC00994208BF90422CBFD8176FEAE37040F0A4
:1066CC00010070474FEA410C7FEA6C5C02D150EA42
:1066DC00013C07D14FEA430C7FEA6C5CD6D152EAFD
:1066EC00033CD3D05DF8040B704700BF84461046C2
:1066FC0062468C461946634600E000BF01B5FFF7C1
:10670C00B7FF002848BF10F1000F01BD4DF808ED90
:10671C00FFF7F4FF0CBF012000205DF808FB00BF61
:10672C004DF808EDFFF7EAFF34BF012000205DF8BB
:10673C0008FB00BF4DF808EDFFF7E0FF94BF012008
:10674C0000205DF808FB00BF4DF808EDFFF7CEFF09
:10675C0094BF012000205DF808FB00BF4DF808ED48
:10676C00FFF7C4FF34BF012000205DF808FB00BF19
:10677C004A0011D212F5001211D20DD56FF47873B4
:10678C00B3EB62520ED44FEAC12343F0004343EA09
:10679C00505323FA02F070474FF00000704750EA54
:1067AC00013002D14FF0FF3070474FF000007047BE
:1067BC0053B94AB9002908BF00281CBF4FF0FF315C
:1067CC004FF0FF3000F0A2B9ADF1080C6DE904CE2A
:1067DC0000F02AF8DDF804E0DDE9022304B070478C
:1067EC00D0B500220E4B06460F46FFF727FDFFF7EC
:1067FC00BFFF0446FFF7ACFC00220A4BFFF71EFD5F
:10680C0002460B4630463946FFF764FBFFF7B0FFF4
:10681C002346002242EA000210461946D0BD00BFB2
:10682C000000F03D0000F0412DE9F0478C460E468B
:10683C000446089D002B50D18A4217466CD9B2FAF7
:10684C0082FEBEF1000F0BD0CEF1200420FA04F42E
:10685C0001FA0EF644EA060C02FA0EF700FA0EF4F0
:10686C004FEA1749220CBCFBF9F01FFA87F809FB19
:10687C0010C642EA064600FB08F3B34209D9F619E2
:10688C0000F1FF3280F02281B34240F21F810238C6
:10689C003E44F61AA2B2B6FBF9F309FB136642EAC0
:1068AC00064403FB08F8A04509D9E41903F1FF32AB
:1068BC0080F00A81A04540F20781023B3C44C8EBC2
:1068CC00040443EA00400021002D62D024FA0EF4A7
:1068DC0000232C606B60BDE8F0878B4207D9002D3C
:1068EC0055D0002185E841000846BDE8F087B3FA91
:1068FC0083F1002940F09080B34202D3824200F22F
:10690C00F880841A66EB03060120B446002D40D0B3
:10691C0085E81010BDE8F08712B90127B7FBF2F734
:10692C00B7FA87FEBEF1000F35D1F31B4FEA1748BB
:10693C001FFA87FC0121B3FBF8F0220C08FB103680
:10694C0042EA06460CFB00F3B34207D9F61900F1F4
:10695C00FF3202D2B34200F2CE801046F61AA2B237
:10696C00B6FBF8F308FB136642EA06440CFB03FC87
:10697C00A44507D9E41903F1FF3202D2A44500F271
:10698C00B5801346CCEB040443EA00409CE729464F
:10699C002846BDE8F087CEF1200106FA0EF307FA7F
:1069AC000EF720FA01F94FEA1748CE4049EA0309DD
:1069BC00B6FBF8FA4FEA194408FB1A661FFA87FC73
:1069CC0044EA06430AFB0CF29A4200FA0EF40AD986
:1069DC00DB190AF1FF3180F087809A4240F2848003
:1069EC00AAF1020A3B449B1A1FFA89F9B3FBF8F18E
:1069FC0008FB113349EA034301FB0CF69E4207D90D
:106A0C00DB1901F1FF326BD29E4269D902393B444A
:106A1C009B1B41EA0A418EE7C1F1200E22FA0EF4CB
:106A2C008B40234320FA0EF706FA01F44FEA134C7D
:106A3C0026FA0EF63C43B6FBFCF9270C0CFB196648
:106A4C001FFA83F847EA064609FB08F7B74202FA31
:106A5C0001F200FA01FA08D9F61809F1FF3041D217
:106A6C00B7423FD9A9F102091E44F61BA0B2B6FBEE
:106A7C00FCF40CFB146640EA064704FB08F8B84526
:106A8C0007D9FF1804F1FF3028D2B84526D9023CAB
:106A9C001F4444EA0940C8EB0707A0FB02894F4595
:106AAC0044464E4614D329D065B3BAEB040367EBC6
:106ABC00060707FA0EFECB40CF404EEA030385E8EB
:106ACC0088000021BDE8F0871346F8E61046E0E6A2
:106ADC00B8EB020469EB03060138E5E70446D8E796
:106AEC00114695E78146C0E78A467CE7023B3C4469
:106AFC0048E708460AE702383E442FE7C245E7D389
:106B0C003E46D1E72946BDE8F08700BF704700BF7D
:106B1C0010B5054C13462CB10A4601460220AFF3C2
:106B2C00008010BD204610BD0000000010B5431EB3
:106B3C000A44914204D011F8014B03F8014FF8E7D5
:106B4C0010BD02440346934202D003F8011BFAE73E
:106B5C007047000038B5124B1C68A36B0546D3B9BF
:106B6C001820FDF74DFE43F20E33A06303804AF666
:106B7C00CD33438041F2342383804EF26D63C38066
:106B8C004DF6EC630381052343810B2383810122A2
:106B9C000023C0E90423A36B00221D615A6138BD98
:106BAC008CE30320034611F8012B03F8012B002A78
:106BBC00F9D17047024B0146186800F003B800BFCA
:106BCC008CE3032070B5064608460C4600F00DF821
:106BDC00451C29463046FDF733FE064618B12A46B9
:106BEC002146FFF7A3FF304670BD034613F8012B77
:106BFC00002AFBD1181A0138704700001D400D0007
:106C0C0059400D0085400D0089400D00000000002A
:106C1C007468696E67737065616B0000000000003A
:106C2C000000000009490D000F490D0065490D00D9
:106C3C001D490D000B490D00000000000000000074
:106C4C001F4F0D00154F0D000B4F0D00014F0D0088
:106C5C00F54E0D00E94E0D00DD4E0D00D54E0D002C
:106C6C00CB4E0D00C14E0D00A1520D0000000000D6
:106C7C00000000003D4F0D00874F0D005F4F0D00D1
:106C8C003F4F0D00674F0D006F4F0D00774F0D00FC
:106C9C007F4F0D000000000000000000D94F0D00D8
:106CAC00C94F0D00CB4F0D006261756400536572C6
:106CBC0069616C0053657269616C3100747970653F
:106CCC0000706172616D00636D6400696400686ED0
:106CDC0064007374726D0066696C74006C766C0081
:106CEC0061646448616E646C65720072656D6F7688
:106CFC006548616E646C657200656E756D48616E99
:106D0C00646C657273004A534F4E53747265616DB7
:106D1C004C6F6748616E646C657200617070002521
:106D2C003031307520005D20002564002C200028B7
:106D3C00293A2000205B00636F6465203D2000250C
:106D4C00690064657461696C73203D20000D0A0054
:106D5C0066006C6E00666E00636F6465006465743B
:106D6C0061696C006E6F6E650074726163650069B9
:106D7C006E666F007761726E006572726F72007072
:106D8C00616E696300616C6C000000000000000023
:106D9C00000000001B510D0011510D0007510D009A
:106DAC00FD500D00F1500D00E5500D00D9500D00B7
:106DBC00D1500D00C7500D00BD500D00A1520D005B
:106DCC00000000000000000039520D0043520D007D
:106DDC004D520D0057520D0061520D006D520D00B9
:106DEC0079520D0085520D008D520D0097520D00F9
:106DFC00A1520D005A00252B3033643A25303275E0
:106E0C000025592D256D2D25645425483A254D3ADC
:106E1C002553257A0061736374696D650000000069
:106E2C000000000000000000DD560D002D570D0085
:106E3C003B570D0081530D00F1560D0013570D00FB
:106E4C00FF560D0027570D00DF560D00E3560D00C1
:106E5C000000000000000000E5570D0035580D0043
:106E6C0043580D0081530D0021580D00E7570D00BC
:106E7C00FD570D002F580D0013580D00E1570D0054
:106E8C0000000000000000004F590D0045590D0096
:106E9C003B590D00F1580D002F590D0023590D00D1
:106EAC0017590D000F590D0005590D00FB580D0019
:106EBC00A1520D00000000000000000000000000C6
:106ECC0000000000000000000000000000000000B6
:106EDC0000000000000000000000000000000000A6
:106EEC000000000000000000000000000000000096
:106EFC000000000000000000000000000000000086
:106F0C000000000000000000000000000000000075
:106F1C0000000000000000004300000069410D006B
:106F2C0045440D00E1480D00294F0D00AD500D00FA
:106F3C00E9510D006D530D0021540D0095560D00B7
:106F4C00C9560D0059590D00495C0D000D5D0D0021
:106F5C00915D0D00155E0D000000000000000000AA
:046F6C000000000021
:086F7000C4F8FF7F01000000DE
:046F78000000000015
:106F7C00216E0D0000000000C46E0D00E46E0D00CB
:106F8C00046F0D0000000000000000000000000075
:106F9C0000000000246F0D00000000000000000045
:106FAC0000000000000000000000000000000000D5
:106FBC0000000000000000000000000000000000C5
:106FCC0000000000000000000000000000000000B5
:086FDC00000000002CE303207B
:106FE400FFFFFFFF00000102030405060708090A6A
:106FF4000B0C0D0E0F101112131415161718191A65
:087004001B1C1D1E1F202800AB
:04700C00785634126C
:04000003D000401CCD
:00000001FF
